:020000040800F2
:10000000C0060020B5010008AD0F0008A50F0008CC
:10001000A90F0008BD020008C10F00080000000081
:10002000000000000000000000000000B50F000804
:10003000C102000800000000B10F0008B90F00085D
:10004000CF010008CF010008CF010008CF01000850
:10005000CF010008CF010008CF010008CF01000840
:10006000C5020008CF010008CF010008CF01000839
:10007000CF010008CF010008CF010008CF01000820
:10008000CF010008CF010008CF010008CF01000810
:10009000CF010008CF010008CF010008CF01000800
:1000A000CF010008CF010008CF010008CF010008F0
:1000B000CF010008CF01000800000000CF010008B8
:1000C000CF0100080000000000000000CF01000880
:1000D00000000000CF010008CF0100080000000070
:1000E000CF010008CF010008CF01000800F002F89E
:1000F00000F050F814A696E8000CB244B344DA4578
:1001000001D100F047F8BAE80F000FA696E83000DA
:10011000A5EB040504EB0607AAEB0704A7F101070A
:100120004FEA15154FEA3414A4F10104AC4201D38F
:1001300000F030F813F0010F18BFFB1A43F0010371
:1001400000F001F8DBE71847701200009012000081
:10015000103A24BF78C878C1FAD8520724BF30C8F3
:1001600030C144BF04680C60704700007047000055
:100170000023002400250026103A28BF78C1FBD8B0
:10018000520728BF30C148BF0B6070471FB51FBD65
:1001900010B510BD00F058F81146FFF7F7FF00F05A
:1001A000E3FF00F076F803B4FFF7F2FF03BC00F0C2
:1001B0007DF800000948804709480047FEE7FEE750
:1001C000FEE7FEE7FEE7FEE7FEE7FEE7FEE7FEE707
:1001D00004480549054A064B70470000BD0F00085A
:1001E000ED000008C0000020C0060020C002002072
:1001F000C00200204FF0000200B513469446964618
:10020000203922BFA0E80C50A0E80C50B1F1200129
:10021000BFF4F7AF090728BFA0E80C5048BF0CC0D7
:100220005DF804EB890028BF40F8042B08BF704735
:1002300048BF20F8022B11F0804F18BF00F8012BA7
:100240007047704770477047754600F02BF8AE4610
:1002500005006946534620F00700854618B020B5D2
:10026000FFF7B6FFBDE820404FF000064FF0000753
:100270004FF000084FF0000BAC46ACE8C009ACE80A
:10028000C009ACE8C009ACE8C00921F007018D46FF
:10029000704710B50446AFF300802046BDE810401B
:1002A000FFF781BF00487047100000200149182067
:1002B000ABBEFEE72600020070470000FEE700002C
:1002C00070470000042000F021B80000B0B50446DB
:1002D00000F03CF9054640F20000C2F20000007850
:1002E000611C18BF044400BF00F030F9401BA0425D
:1002F000FAD3B0BD042818BF704740F60000C4F21E
:1003000001004FF4007100F013B9000040F21441F5
:10031000C4F201010A68024214BF08607047FFF787
:10032000E9BF00002DE9F04F82B00E68002E00F00A
:10033000F58041F20002C4F20102032340F2004EB4
:10034000904208BF02234FF6FF7CC4F2010E0093D7
:1003500000240123C1F2100C4FF0000B4FF00009F4
:100360004BE000BF40F60042C4F20102009F904201
:1003700008BF012704F00C030F229A402AEA020268
:1003800007FA03F34FEA9B051A4346F825204E6807
:1003900040F20C45F202DEF8082054BF22EA0802BF
:1003A00042EA0802C4F20105CEF808202A68B30226
:1003B00054BF22EA080242EA08022A60B303DEF8C8
:1003C000042054BF22EA080242EA0802F303CEF8EE
:1003D0000420DEF800204FF0010354BF22EA080297
:1003E00042EA0802CEF800200E680BF1010B36FA43
:1003F0000BF204F1040400F0918003FA0BFA16EA00
:100400000A08F1D04E68664512DC122E56D8DFE895
:1004100006F0350B454955555555555555555555C6
:100420005555554D510000BFD1F80C9046E000BF26
:100430004FF6FF72C1F2210296420FDC0022C1F298
:10044000110296421AD00022C1F21202964215D031
:100450000022C1F22102964210D02FE00022C1F208
:10046000220296420AD00022C1F23102964205D001
:100470000022C1F23202964220D100BF8A684AB1FE
:10048000012A14BFC0F814A0C0F810A04FF008094A
:1004900014E000BF4FF0040910E000BFCA6802F189
:1004A00008090BE04FF0000908E000BFCA6802F13C
:1004B000040903E0CA6802F10C0900BF224606469F
:1004C000B8F5807F24BF203A043637680F25954061
:1004D00027EA050509FA02F22A433260CA79D206F0
:1004E0007FF582AF41F21803C4F202031A68AEF539
:1004F0007E7642F001021A601A6802F0010201924F
:10050000019A2BF0030256F802A040F60002C4F252
:10051000010290427FF426AF00272BE702B0BDE82E
:10052000F08F00008068084018BF0120704700006D
:10053000C26802EA0103914341EA03410161704745
:10054000002A08BF090401617047000040F2B800AA
:10055000C2F200000068704740F2000040F2B801AB
:10056000C2F20000C2F2000100780A68104408607C
:100570007047000080B542F20000C4F2020001683A
:1005800041F010010160032000F08CF80F2000F012
:1005900005F800F027F8002080BD000070B540F29B
:1005A0000006C2F2000640F208013278C2F20001F1
:1005B0004FF47A730968B3FBF2F20446B1FBF2F12F
:1005C000084600F061FB0F2C4FF0010508D838B940
:1005D0004FF0FF3021460022002500F037F874600C
:1005E000284670BD82B041F21800C4F202000168D2
:1005F000042241F001010160016801F00101019153
:100600000199416841F080514160406800F080509C
:10061000009000980420C4F20100016862F31A619E
:10062000016002B070470000002848BF704700F02A
:100630001F01012202FA01F11C2202EAD0004EF24F
:100640000012CEF2000281507047000010B54EF645
:100650000C5CCEF2000CDCF80030C3F3022E8EF0FE
:100660000704042C28BF0424BEF103034FF0FF3E0F
:100670000EFA04F438BF0023A14399400EFA03F3A5
:100680009A43114300F00F0200F160430901043A5C
:1006900003F564436244002848BF02F10C0319705B
:1006A00010BD00004EF60C51CEF200010A684FF664
:1006B000FF031A4060F30A2242F0806040F0FD70B0
:1006C00008607047002804BF012070472DE9F043FF
:1006D00081B042F20008C4F202080446D8F80000D3
:1006E0000D4600F0070088420CD2D8F8000020F038
:1006F00007002843C8F80000D8F8000000F0070001
:10070000A8426CD1206841F204098107C4F20209B1
:1007100017D5410705D5D9F8001041F4E061C9F8B3
:100720000010010705D5D9F8001041F46051C9F84F
:100730000010D9F80010A26821F0F0011143C9F8A7
:100740000010C00742D1D8F8000000F00700A8420E
:100750000CD9D8F8000020F007002843C8F80000A2
:10076000D8F8000000F00700A84238D120684107FF
:1007700007D5D9F80010E26821F4E0611143C9F807
:100780000010000708D5D9F80000216920F4605056
:1007900040EAC100C9F80000D9F8002002F00C00BE
:1007A000082841F20020C0F27A0051D141F2A6336C
:1007B000C2F38341C0F60003595CD2033CD440F637
:1007C0000010C0F23D00484342E000BF60680228CC
:1007D0000AD001282AD159F8041C890308D4012021
:1007E00001B0BDE8F08300BF59F8041C8901F6D5BB
:1007F000D9F8001021F003010843C9F80000FFF701
:10080000A5FE064641F28837D9F80000616800F07D
:100810000C00B0EB810F96D0FFF798FE801BB8421A
:10082000F2D9032001B0BDE8F08300BF59F8041CE1
:100830008907D4D5DCE700BFD9F8002041F2A43302
:10084000C2F34042C0F600039A5C4843B0FBF2F0AA
:10085000D9F8001041F29432C1F30311C0F600023E
:10086000515C40F2080220FA01F140F20400C2F2A9
:1008700000000068C2F200021160FFF78FFE002046
:1008800001B0BDE8F0830000002804BF01207047DC
:100890002DE9F04182B00446007841F20006C0071D
:1008A000C4F202060CD0706800F00C00042840F07E
:1008B00081803068800303D56068002800F04E8195
:1008C000207880071BD5706810F00C0F09D0706875
:1008D00000F00C00082840F08B807068C00300F125
:1008E00087803068800703D52069012840F0368171
:1008F0003068616920F0F80040EAC100306020787B
:10090000000713D4207840072CD4E569002D00F0AF
:100910002081706800F00C00082840F0AF80012DA5
:1009200040F00C81012002B0BDE8F081A0690028F0
:1009300000F08C800020C4F242200121C0F8801415
:10094000FFF704FE054600BF706A800700F1BA8019
:10095000FFF7FCFD401B0228F6D9032002B0BDE8DA
:10096000F08100BFF0695FEAC00808D4F06940F088
:100970008050F061F06900F080500090009847F2DC
:100980000007C4F200073868C0054DD4386840F449
:1009900080703860FFF7DAFD054600BF3868C00593
:1009A00042D4FFF7D3FD401B6428F7D9032002B0DF
:1009B000BDE8F081706800F00C00082803D1706871
:1009C000C0033FF576AF6068002800F00981B0F5FC
:1009D000A02F00F01D81B0F5803F00F01D81306830
:1009E00020F480303060306820F4802017E100BFB0
:1009F0002069002840F20000C4F2422000F08C8000
:100A000001210160FFF7A2FD054600BF30688007A5
:100A10003FF56EAFFFF79AFD401B0228F6D9032081
:100A200002B0BDE8F08100BFE068002800F09A80C5
:100A3000052800F0B180012800F0B280306A20F073
:100A400001003062306A20F00400ACE00020C4F203
:100A500042200021C0F88014FFF778FD054600BF52
:100A6000706A80077FF54EAFFFF770FD401B0228CC
:100A7000F6D9032002B0BDE8F08100BF0027C4F220
:100A8000422700203866FFF761FD022D05460DD193
:100A90003068800140F1D680FFF758FD401B0228E6
:100AA0004FF00300F4D902B0BDE8F0813068800156
:100AB0004FD5FFF74BFD401B02284FF00300F5D93F
:100AC000F1E700BF40F20800C2F20000006844F6FF
:100AD000D351C1F26201A0FB0101480A019000BF9D
:100AE00000BF0198411E002801913FF40BAF00BFE9
:100AF0000198411E002801913FF404AF00BF019806
:100B0000411E002801913FF4FDAE00BF0198411E37
:100B100000280191E4D1F5E600210160FFF716FD00
:100B2000054600BF306880077FF5E9AEFFF70EFD90
:100B3000401B02284FF00300F4D9B4E77068216A23
:100B400000F480328A4209D1616A00F47010884250
:100B500004D1002002B0BDE8F08100BF012002B046
:100B6000BDE8F081306A20F001003062306A20F088
:100B700004003062FFF7EAFC054641F2883700BF07
:100B8000306A800722D5FFF7E1FC401BB8424FF0E6
:100B90000300F5D987E700BF306A40F004003062F7
:100BA000306A40F001003062FFF7D0FC054641F2A8
:100BB000883700BF306A800708D4FFF7C7FC401BA6
:100BC000B842F7D9032002B0BDE8F081B8F1000FB8
:100BD0003FF59BAEF06920F08050F06195E600BFD4
:100BE000306820F480303060306820F4802030603D
:100BF000FFF7ACFC054600BF306880037FF560AEB0
:100C0000FFF7A4FC401B64284FF00300F4D94AE727
:100C1000306840F480203060306840F480303060CC
:100C2000FFF794FC054600BF306880033FF548AEEF
:100C3000FFF78CFC401B6428F6D9032002B0BDE806
:100C4000F08100BF206AB0F5803F05D17168A268CD
:100C500021F40031114371607168626A21F47411EA
:100C600011430843706001203866FFF76FFC0446AB
:100C7000306880013FF56DAFFFF768FC001B02286C
:100C80004FF00300F4D90EE7411E0020B0EB116FC6
:100C90001CBF012070474EF21002CEF200025160DC
:100CA0004EF62351CEF20001F0230B700721906025
:100CB0001160704790F83C20012A4FF0020228D0C2
:100CC00010B580F83D200268D2F804E0D2F808C0E0
:100CD0000C682EF070032343B2F1804F53600BD0A9
:100CE00042F60043C4F201039A4205D040F20043A9
:100CF000C4F200039A4204D149682CF080031943DE
:100D000091600121002280F83D1080F83C20BDE870
:100D10001040104670470000002804BF01207047B3
:100D200010B5044690F83D0028B9002084F83C0036
:100D3000204600F051F8022084F83D00206842F679
:100D4000004C0268B0F1804FC4F2010C18BF60453E
:100D500004D1A36822F070021A4305E040F2004378
:100D6000C4F200039842F4D0B0F1804F18BF604540
:100D700004D1236922F440721A4305E040F2004393
:100D8000C4F200039842F4D0A16922F08002D4F8A2
:100D900004E0E368114360450160C362C0F828E0E5
:100DA00002D16169CCF8301001214161002084F842
:100DB000461084F83E1084F83F1084F8401084F800
:100DC000411084F8421084F8431084F8441084F8E9
:100DD000451084F83D1010BD0068B0F1804F18BF79
:100DE000704781B041F21C00C4F20200016841F07A
:100DF00001010160006800F001000090009801B05E
:100E00007047000090F83C20012A4FF0020200F0E9
:100E1000C58080B580F83D20D0F800C04FF67772CD
:100E2000DCF8083023EA0202CCF808200B684F2BCC
:100E300028DC1F2B44DD202B45D0302B43D0402B0A
:100E400040F0AE80D1F804E0C968DCF82030DCF86E
:100E5000202022F00102CCF82020DCF8182022F01B
:100E6000F00242EA011123F00A0242EA0E02CCF833
:100E70001810CCF82020DCF8081041F0470121F0D0
:100E8000300180E06F2B27DDB3F5005F48D0B3F56C
:100E9000805F7AD0702B40F08380D1E901E3C9688C
:100EA000DCF8082043EA0E0322F47F4243EA0121E2
:100EB0001143CCF80810DCF8081041F0770162E02B
:100EC0000BB1102B6CD1DCF8081021F07001194324
:100ED00041F0070157E000BF502B35D0602B5FD1A8
:100EE000D1F804E0C968DCF82030DCF8202022F0DA
:100EF0001002CCF82020DCF8182022F4704242EADC
:100F0000013123F0A00242EA0E12CCF81810CCF8FE
:100F10002020DCF8081041F0670121F0100132E0D8
:100F2000D1E901E3C968DCF8082043EA0E0322F4A2
:100F30007F4243EA01211143CCF80810DCF8081085
:100F400041F480411FE000BFD1F804E0C968DCF83B
:100F50002030DCF8202022F00102CCF82020DCF840
:100F6000182022F0F00242EA011123F00A0242EABC
:100F70000E02CCF81810CCF82020DCF8081041F054
:100F8000570121F02001CCF808100022012180F83F
:100F90003D10002180F83C10BDE8804010467047AD
:100FA0000122F3E7FEE70000FEE70000FEE7000095
:100FB0007047000070470000FFF7CEBA704700008E
:100FC000FEE7000010B51E20FFF780F940F6004450
:100FD000C4F2010420464FF480510022FFF7B0FA1A
:100FE00020464FF400510122FFF7AAFA20464FF4A1
:100FF00080410022FFF7A4FA20464FF4004100226E
:10100000FFF79EFA20464FF480610022FFF798FA1E
:1010100020464FF400610122FFF792FA20464FF478
:1010200000610022FFF78CFA0020282100F038F838
:1010300000200C2100F034F80020062100F030F8E8
:1010400000200121BDE8104000F02AB810B5144678
:10105000032815D8DFE800F002060A0E6FF07F00C3
:10106000484009E0A1F1400006E000BFA1F1700096
:1010700002E000BFA1F13000C1B2002000F010F882
:101080002078002808BF10BD013C00BFC1B201207C
:1010900000F006F8A07801340028F7D110BD000058
:1010A00070B5064602200D46FFF710F940F60044E1
:1010B000C4F20104002E18BF012620464FF48061BF
:1010C0003246FFF73DFAEA0920464FF40041FFF7A8
:1010D00037FAC5F3801220464FF48041FFF730FA0B
:1010E000C5F3401220464FF40051FFF729FAC5F32B
:1010F000001220464FF48051FFF722FA20464FF4A9
:1011000000610122FFF71CFA20464FF40061002223
:10111000FFF716FAC5F3C00220464FF40041FFF76F
:101120000FFAC5F3800220464FF48041FFF708FA1A
:10113000C5F3400220464FF40051FFF701FA05F0D5
:10114000010220464FF48051FFF7FAF920464FF490
:1011500000610122FFF7F4F920464FF400610022FC
:10116000BDE87040FFF7ECB990B0FFF703FA06ACAA
:10117000201D2421FFF73EF80220069001200A904E
:1011800010200B90002520460D95FFF77DFB28B120
:10119000EFF3108072B600BFFEE700BF0F20CDE96D
:1011A000000568460021CDE902550495FFF78AFA4B
:1011B00020B1EFF3108072B6FEE700BF41F21800D5
:1011C000C4F20200016840F6000441F02001016011
:1011D0000168C4F2010401F020010691069901683A
:1011E000002241F004010160016840F2422601F052
:1011F0000401069106990168002741F00801016089
:10120000006840F2422100F008000690069820464F
:10121000FFF796F904F5806528464FF47C410022DB
:101220004FF47C48FFF78CF9069606AE4FF00109A3
:101230004FF0020A20463146CDE90797CDF824A0A9
:10124000FFF770F8042006900020C1F21100CDE9EC
:10125000070720463146FFF765F828463146CDE9B5
:101260000689CDE9087AFFF75DF808200021002201
:10127000FFF7ECF90820FFF7D7F940F27000C2F24F
:1012800000004FF080414FF6FF720997CDE90777D4
:10129000CDE90077C0E90017C0E9027207618761F4
:1012A000FFF73AFD20B1EFF3108072B6FEE700BF02
:1012B0004FF48050069040F27000C2F2000006A980
:1012C000FFF7A0FD20B1EFF3108072B6FEE700BF7C
:1012D00040F27000C2F200006946FFF7EBFC28B153
:1012E000EFF3108072B600BFFEE700BFFFF76AFEA3
:1012F0000FF2500818A70FF274090FF2840A10E0D9
:1013000000223E46454620460221FFF719F90020FB
:1013100000213246FFF79AFE012000212A46FFF7FE
:1013200095FE20460421FFF7FDF80028E8D120466D
:101330000421FFF7F7F80028F3D1012256464D4665
:10134000E1E700BF524F4F4620434C4F53494E47B1
:101350003A202059000000005241494E2044455493
:1013600045435445443A205900000000524F4F462F
:1013700020434C4F53494E473A20204E0000000076
:101380005241494E2044455445435445443A204E29
:101390000000000000000000000000000102030443
:1013A00006070809010202030405060708090A0BDB
:1013B0000C0D0E0F10100000D813000800000020C4
:1013C0001000000050010008E81300081000002081
:1013D000B0060000700100080100000010000000CD
:0813E0000024F40000000000ED
:04000005080000ED02
:00000001FF
